:020000041000EA
:1000000000B5324B212058609868022188439860DF
:10001000D860186158612E4B002199600221596106
:100020000121F02299502B49196001219960352056
:1000300000F044F80222904214D00621196600F024
:1000400034F8196E01211966002018661A6600F04E
:100050002CF8196E196E196E052000F02FF8012189
:100060000842F9D1002199601B49196000215960AB
:100070001A491B48016001219960EB211966A021F2
:10008000196600F012F800219960164914480160C1
:100090000121996001BC002800D000471248134993
:1000A000086003C880F30888084703B5996A0420EC
:1000B0000142FBD001200142F8D103BD02B5186610
:1000C0001866FFF7F2FF186E186E02BD00000240BE
:1000D000000000180000070000035F00212200005C
:1000E000F4000018222000A00001001008ED00E03C
:1000F00000000000000000000000000074B24E7A12
:1001000000200420F7010010C3010010C5010010F9
:10011000C1010010C1010010C1010010C101001097
:10012000C1010010C1010010C1010010C701001081
:10013000C1010010C1010010C9010010CB01001065
:10014000CD010010CD010010CD010010CD01001037
:10015000CD010010CD010010CD010010CD01001027
:10016000CD010010CD010010CD010010CD01001017
:10017000CD010010CD010010CD010010CD01001007
:10018000CD010010CD010010CD010010CD010010F7
:10019000CD010010CD010010CD010010CD010010E7
:1001A000CD010010CD010010CD010010CD010010D7
:1001B000CD010010CD010010CD010010CD010010C7
:1001C00000BE00BE00BE00BE00BE00BEEFF3058054
:1001D000103800BEF2EB8871E4EE011004EF01105C
:1001E0003402001090A31AE700201F49086006C8D7
:1001F00081F3088810471D48006800282FD10DA4FE
:100200000ECC002902D000F012F8F9E71849194A7B
:10021000002000E001C19142FCD1174988471749ED
:1002200088471749884700BEFDE701C901C29A42C5
:10023000FBD3704704EF0110C00000203C210020D8
:10024000800F02100000042000000420800F021024
:10025000001004200010042000000000704709482E
:1002600006F046FB0047000008ED00E0000000D06B
:10027000402100206C360020CD550010D9300010F0
:100280008F5500105756000006005250ABB3605314
:10029000446B011006005250861C0302546B01107F
:1002A000060052505422A29D646B0110050052506A
:1002B000DE65F468800F0210F8B5C04606480749AD
:1002C000091A8B10C90FC91810B5491003D0044B77
:1002D000002B00D0984710BD3C2100203C2100207D
:1002E00000000000054B10B5002B03D00449054861
:1002F00000E000BFFFF7E2FF10BDC04600000000B5
:10030000C0330020985B0110044B00221A719A60E0
:10031000191DD96019615A617047C046B02200208A
:1003200010B504004368013B4360002B0BD1036808
:100330009B689847A368013BA360002B03D1236807
:10034000DB682000984710BD10B508002C215143F0
:100350000AF08CFD10BD10B504008068002801D0A3
:10036000FFF7DEFF200010BD10B50800D3009A1A79
:1003700091000AF07BFD10BD70B505000C0008006F
:100380001030FFF7E8FF012221002800FFF7ECFF03
:1003900070BD70B505000C00002C0AD0E168280083
:1003A000FFF7F7FFA66821002800FFF7E5FF3400FC
:1003B000F2E770BD10B504008168FFF7EAFF200086
:1003C00010BD10B504000430FFF7F4FF200010BD8D
:1003D00070B505000C0008001030FFF7F2FF012295
:1003E00021002800FFF7B0FF70BD10B5FFF78CFFAC
:1003F00010BD0000044B00221A719A60191DD960CB
:1004000019615A617047C046C822002010B5FFF735
:10041000F1FF10BD044B00221A719A60191DD960BA
:1004200019615A617047C046E022002010B5FFF7FD
:10043000F1FF10BD044B00221A719A60191DD9609A
:1004400019615A617047C046F822002010B5FFF7C5
:10045000F1FF10BD044B00221A719A60191DD9607A
:1004600019615A617047C0461023002010B5FFF78C
:10047000F1FF10BD044B00221A719A60191DD9605A
:1004800019615A617047C0462823002010B5FFF754
:10049000F1FF10BD10B582B001AC20706170A27088
:1004A000E370CBB21B02C0B21843D3B21B04054A9F
:1004B00010401843E3781B060002000A184302B0FC
:1004C00010BDC046FFFF00FFF0B583B004000E0072
:1004D0001500002916D101AB1A705A709A700022CB
:1004E000DA7001AB5A781202187810439A78120425
:1004F000494908401043DB781B060002000A1843F4
:1005000003B0F0BD2B2106F047FAC2B283069B1A56
:100510009B009B189B009B189B009B18E418630092
:10052000E4186400E4B2FF23981B68430012C0B2D1
:100530006946C870210071430912591A69430912AA
:10054000C9B26F46B9701C1B744324121B1B6B434A
:100550001B12DBB27B70042A4ED892002F4CA2589B
:10056000974601AA157053709070984205D36B4658
:1005700001331A7801ABDA70B3E76B460333F8E75F
:1005800001AB19705D709870884205D36B460233D9
:100590001A7801ABDA70A4E76B460333F8E701AAD7
:1005A000107055709370984205D36B4601331A78DA
:1005B00001ABDA7095E76B460333F8E701AB1870CF
:1005C00059709D70884205D36B4602331A7801AB8F
:1005D000DA7086E76B460333F8E701AA13705070B0
:1005E0009570984205D36B4601331A7801ABDA70E7
:1005F00077E76B460333F8E701AB1D7058709970CD
:10060000884205D36B4602331A7801ABDA7068E78B
:100610006B460333F8E7C046FFFF00FF985B01100D
:10062000F0B58BB007AD0790069116001F00287833
:1006300006F08AFC32003B0006F019FC049005919C
:1006400006AB187806F080FC0290039132003B0064
:1006500000203D4906F0DBFB03000C0000930194F1
:1006600002000B000298039906F001FC02000B0047
:100670000498059906F0D4FB06F0A6FC09AC20709E
:10068000687806F061FC32003B0006F0F0FB029057
:10069000039106AA507806F057FC02000B00009860
:1006A000019906F0E4FB02000B000298039906F0A2
:1006B000B7FB06F089FC6070A87806F045FC3200B4
:1006C0003B0006F0D4FB0290039106AA907806F056
:1006D0003BFC02000B000098019906F0C8FB0200E9
:1006E0000B000298039906F09BFB06F06DFCA070CE
:1006F000E87806F029FC32003B0006F0B8FB060063
:100700000F0006AAD07806F01FFC02000B0000982C
:10071000019906F0ACFB02000B003000390006F036
:100720007FFB06F051FCE07063781B0220781843D1
:10073000A3781B04054A10401843E3781B06000207
:10074000000A18430BB0F0BD0000F03FFFFF00FFB0
:1007500010B503685B68984710BD0000044B002289
:100760001A719A60191DD96019615A617047C046A3
:10077000402300200B6803604B684360002B02D0CD
:100780005A6801325A6000230372704710B500683E
:1007900003689B68984710BD30B585B005000C0014
:1007A0000192012B06D0022B58D0006800F00BFA02
:1007B00005B030BD006800F09DF9029002AB1B78D7
:1007C000DA43D2B203A90A7001A909788A423AD35E
:1007D00001AA117802AA5B1813705378DA43D2B2D7
:1007E0000D2169440A7001A949788A422DD36A46CD
:1007F0000532117802AA5B1853709378DA43D2B2AB
:100800000E2169440A7001A989788A4220D36A4678
:100810000632117802AA5B189370D378DA43D2B209
:100820000F2169440A7001A9C9788A4213D36A4624
:10083000073212789B1802AAD3702868029A210006
:1008400000F0C1F9B4E703AAC3E70D226A44D0E778
:100850000E226A44DDE70F226A44EAE7006800F0EE
:1008600049F9029002AB1B7801AA127893422BD36C
:1008700001AA117802AA5B1A1370537801AA527860
:10088000934223D36A460532117802AA5B1A537049
:10089000937801AA927893421BD36A460632117864
:1008A00002AA5B1A9370D37801AAD278934213D329
:1008B0006A46073212789B1A02AAD3702868029AF5
:1008C000210000F080F973E702AAD2E709226A4406
:1008D000DAE70A226A44E2E70B226A44EAE700B553
:1008E00083B00192037AFFF757FF03B000BD10B544
:1008F00082B00191046823681B68200098470300B8
:1009000000220199200000F06EF902B010BD10B570
:1009100082B004000023002200210020FFF7BAFD6E
:10092000010001902000FFF7E2FF02B010BD00B50A
:1009300083B00191006800F056F903B000BD10B516
:1009400082B004000191006803681B6898470300A7
:10095000002201992000FFF7EAFF02B010BDF0B5B8
:10096000CE46474680B585B08146019100929846B3
:100970000C9D4544006803681B689847854205D96B
:100980004B46186803681B689847050044461CE0FE
:100990004346E01A06F0D8FA06000F004346E81A6C
:1009A00006F0D2FA02000B003000390006F041FADE
:1009B00002000B0000990198FFF732FE020003903D
:1009C00021004846FFF78BFF0134A542E0D805B06F
:1009D000C0BCB946B046F0BDF0B5C64600B582B061
:1009E00007000C0090461D00089BEE180068036885
:1009F0001B689847864213D9386803681B68984774
:100A000006000DE0FF22FF212000FFF75DFD020040
:100A1000019029003800FFF762FF4444E4B2013539
:100A2000AE42EFD802B080BCB846F0BD70B582B01F
:100A300004000D001600006803681B6898470090CA
:100A40000023320029002000FFF7C6FF02B070BD6E
:100A500010B5006803685B69984710BD10B5FFF7D3
:100A60007DFE10BD10B582B001AC20706170A27027
:100A7000E370CBB21B02C0B21843D3B21B04054AC9
:100A800010401843E3781B060002000A184302B026
:100A900010BDC046FFFF00FF40687047007B7047F5
:100AA000017370470020704770477047044B002265
:100AB0001A719A60191DD96019615A617047C04650
:100AC0005823002070B504AC257805AC2478054E79
:100AD00006604160FF210173027243728572C47225
:100AE00070BDC046D05B0110014B03607047C0462B
:100AF000D05B011030B583B004000D00002300224C
:100B000000210020FFF7AEFF00902368DB6829007A
:100B100020009847042308E0042B04D16B46D870CA
:100B200001E06B461870000A13005A1E002B0ED00D
:100B3000A3181B7A032B07D0EED8012BF1D0022B80
:100B4000F1D16B465870EEE76B469870EBE701AB5E
:100B5000009A01925A781202187810439A78120477
:100B6000044908401043DB781B060002000A1843C2
:100B700003B030BDFFFF00FF10B582B0040001914B
:100B80000023002009E0042A06D101AAD2781043EC
:100B900002E001AA127810430133032B11D800029E
:100BA000E218127A032A08D0EDD8012AF1D0022ADD
:100BB000F2D101AA52781043EEE701AA92781043CD
:100BC000EAE702B010BD70B582B004000D000192DA
:100BD00003681E691100FFF7CFFF02002900200003
:100BE000B04702B070BDF0B583B0050001911400AC
:100BF0001E00FFF7C1FF0700A3196E689E4208D3CD
:100C00001E0006E02B681B693A0021002800984767
:100C10000134A642F6D803B0F0BD0000064B080030
:100C200018405043090A19405143000A1840034B29
:100C3000194008437047C046FF00FF0000FF00FF57
:100C400010B5FFF733FF10BD30B585B06B46D871D6
:100C50009D1D99715A71D87903AB18702978597014
:100C6000D2B29A70884217D86B46073319788A42F5
:100C700015D31A7803ABDA705A7812021878104339
:100C80009A781204074908401043DB781B060002DB
:100C9000000A184305B030BD6B460633E6E76B46E5
:100CA0000533E6E7FFFF00FFC3698900C8587047B6
:100CB000C36989005A507047044B00221A719A6028
:100CC000191DD96019615A617047C0467023002010
:100CD00010B50400064B0360C069002802D004214F
:100CE0000AF0C4F82000FFF7FFFE200010BDC04648
:100CF000F05B011010B50400FFF7EAFF202120008F
:100D00000AF0B4F8200010BDF8B50600002713E083
:100D100035697469F169BB00327BC9583000FFF74F
:100D20007DFF6A682100103101238B401342F8D106
:100D30000434A400605101377368BB42E8D8F8BDA1
:100D4000F0B5C64600B584B00400884617001E0002
:100D50000AAB20CB1A780CAB1B780DA909780EA82A
:100D600000780190009129002000FFF7ABFE134BA3
:100D70002360434623616761A661114B9D4210D8F1
:100D8000A8000AF027FFE061002200210020FFF701
:100D90005BFF010003902B0000222000FFF723FFE0
:100DA00006E00AF041FA2000FFF79EFE0AF06EF915
:100DB000200004B080BCB846F0BDC046F05B011016
:100DC000FEFFFF1F10B5FFF777FF10BD70B50600DF
:100DD0000D1C081C06F08CFC84B2002C12D02000E4
:100DE00006F05EFC011C281C06F031FC8721C905B9
:100DF00006F04DFC06F07CFCC3B21B0224041C432D
:100E0000346070BD0023F8E770B504000D001022B7
:100E1000002106F03DFD80235B022360F8235B0286
:100E200063608023DB02A360C0231B03A360EB1C71
:100E3000ED011B031D43656080239B05E360024BAE
:100E40001D406560200070BDFFFFFF9F10B50400CE
:100E5000024B0360FFF73CFF200010BD185C01103F
:100E600010B50400044B0360FFF732FF202120007F
:100E700009F0FCFF200010BD185C0110F0B5C6465B
:100E800000B586B004000D0017009846274B984225
:100E900049D00721404602F04DFB01260096012370
:100EA00042462900200009F0BBFE390002A8FFF7E6
:100EB000ABFF059B1E4A1340424692021343059323
:100EC000049A1C4B1A4080239B0213430D9A52062E
:100ED000F82189050A40134304939B009B08802254
:100EE000D20513430493052004F012FA06F0D8FB50
:100EF000804611490C9806F0CAFB011C404606F0DA
:100F0000B0FB011C02A8FFF761FF02AB3A00290009
:100F1000200009F0D7FE2368AE403343236006B0BB
:100F200080BCB846F0BD0621B4E7C04600002050A2
:100F3000FF83FFFFFFFFF5C100002041F0B5CE4663
:100F4000474680B587B004000D0016001F000EABA9
:100F500004CB1B78994610A9097811A8007812AB28
:100F60001B7898460493039002914B46019300929C
:100F70003B00320029002000FFF7E2FE104B236007
:100F80001049280009F030FE02004346002B09D129
:100F9000183301930C4B00933B0031002800FFF7FE
:100FA0006DFF06E02023F4E72000FFF791FE0AF032
:100FB0006DF8200007B0C0BCB946B046F0BDC046D1
:100FC000185C0110385C0110005043490020704744
:100FD00010B5002B02DB0260436010BD024B034AD8
:100FE00003483F2104F0D6FA485C0110645C01100C
:100FF0009C5C011010B5040003F0CCFD02000B0056
:101000002000FFF7E5FF200010BD000010B5040030
:101010000298039912184B41002B04DB2000FFF7C4
:10102000D7FF200010BD01225242014BF6E7C04617
:10103000FFFFFF7F70B584B0040016001D0002A8FA
:10104000FFF7D8FF029A039B009601952000FFF757
:10105000DDFF200004B070BDF0B5C64600B586B017
:1010600080460D0016001F000CAB1C780D9A002363
:1010700004A8FFF7DFFF049A059B029203930094F4
:101080003B0032002900404609F005FB06B080BC59
:10109000B846F0BDF0B5C64600B586B080460D0036
:1010A00016001F000CAB1C780D9A002304A8FFF754
:1010B000C1FF049A059B0292039300943B00320007
:1010C0002900404609F0C8FA06B080BCB846F0BD19
:1010D000F8B505000C0017001E00002909DB1822D6
:1010E000835E8B4205DD002F03DB1A22835EBB4249
:1010F00000DCF8BD00F068FD022826D003282DD0C2
:10110000012804D16B8ADB1B013B27001CB236236C
:10111000EA5CF9172F3B0B40DB19DB101BB2534382
:101120009BB2A4B21B199BB2012E1DD0022E24D05B
:10113000002EDED1E86BC45C0721394001228A40D1
:10114000D24352B22240C254D3E76B8A1B1B013BED
:101150001CB2AB8ADB1B013B1FB2D8E7AB8A1B1B5F
:10116000013B3C001FB2D2E7EC6BE25C0720384049
:10117000012181400A43E254BBE7EC6BE25C0720AB
:101180003840012181404A40E254B2E7F8B5CE46EA
:10119000474680B504000E00150000F0B9FA194B5F
:1011A000236021230322E25443336384164A62629C
:1011B00028223C21A15401322A39A15401320131A3
:1011C000A154A38500230A32A3540132A35401324F
:1011D00091464A3249466254372040272754483ABC
:1011E0009046303A41466254E3636633E353EDB2CE
:1011F00025544B46E654ED0865542000C0BCB94662
:10120000B046F8BD607B011050C3000010B502ACC1
:101210002488D2084A43944204D1C363002B06D0E9
:10122000002010BD044806F011FD0220F9E7034834
:1012300006F00CFD0320F4E7E85C0110345D0110BA
:1012400070B584B004006B461A735973436A282240
:10125000815C006B019300230093023303AAFFF724
:1012600019FF06B2002514E02123E35CAB421FD92D
:10127000636A2822A15C206B019300230093023350
:1012800003AAFFF707FF06B2608C03F0D3FC013519
:10129000EDB2002E0CDC3523E35C002BE4D00A48D1
:1012A000290006F003FD0948310006F0FFFCDBE7EA
:1012B000002E04DD34230122E25404B070BD342337
:1012C0000022E254F9E7C0467C5D0110C05D0110C8
:1012D00070B50400642003F0ADFC0022AE212000B4
:1012E000FFF7AEFF0022D5212000FFF7A9FF002263
:1012F00080212000FFF7A4FF0022A8212000FFF793
:101300009FFF3725615D0139C9B200222000FFF738
:1013100097FF0022D3212000FFF792FF0022002137
:101320002000FFF78DFF002240212000FFF788FFFB
:1013300000228D212000FFF783FF002214212000CE
:10134000FFF77EFF002220212000FFF779FF002217
:1013500000212000FFF774FF0022A1212000FFF7E9
:101360006FFF0022C8212000FFF76AFF635D202B7A
:1013700058D0402B16D0102B28D10022DA21200083
:10138000FFF75EFF002202212000FFF759FF002235
:1013900081212000FFF754FF0022AF212000FFF73A
:1013A0004FFF13E00022DA212000FFF749FF00225F
:1013B00012212000FFF744FF002281212000FFF7C7
:1013C0003FFF0022CF212000FFF73AFF0022D92162
:1013D0002000FFF735FF0022F1212000FFF730FF4A
:1013E0000022DB212000FFF72BFF002240212000FC
:1013F000FFF726FF0022A4212000FFF721FF002293
:10140000A6212000FFF71CFF00222E212000FFF75D
:1014100017FF0022AF212000FFF712FF642003F026
:1014200009FC70BD0022DA212000FFF709FF00222D
:1014300002212000FFF704FF002281212000FFF796
:10144000FFFE00228F212000FFF7FAFEBEE700001A
:10145000F0B5CE46474680B585B004000CA80078AC
:101460000DAD2D782827E1552263A3852A239846C0
:10147000E554013B9946E0540F256D4400262E703B
:10148000032102F057F84346E05C032102F052F8D2
:101490004B46E05C0022012102F064F84346E05C28
:1014A0000022012102F05EF8A38D5901C91A8900BA
:1014B000C918C900206B09F0A3F8636AE15D206BCD
:1014C0000193009601232A00FFF7C6FD051E0BDDE0
:1014D00034230122E2542000FFF7FAFE012005B078
:1014E000C0BCB946B046F0BD3523E35C002B04D147
:1014F00034230022E2540020F1E7054806F0A6FB61
:101500000F236B441A780348290006F0CFFBEFE75E
:10151000D05D0110F85D011010B5002904D0002243
:10152000AF21FFF78DFE10BD0022AE21FFF788FE30
:10153000F9E710B50021FFF7EFFF642003F07AFB15
:1015400010BD10B50300C06B3622995C01329A5C65
:10155000D2084A43002106F09BF910BDF8B5DE46DB
:1015600057464E464546E0B507000E009146984660
:101570000AAB1B789A460B9B9B4600222121FFF762
:101580005FFE002200213800FFF75AFE3623F95C87
:101590000139C9B200223800FFF752FE0022222191
:1015A0003800FFF74DFE002200213800FFF748FE0B
:1015B0003723FB5C202B0BD0402B03D0102B0DD0FE
:1015C000002529E0002207213800FFF739FEF7E760
:1015D000002203213800FFF733FEF1E7002201214A
:1015E0003800FFF72DFEEBE70134E4B2444511D299
:1015F0003319F9D43622BA5C9342F5DAEB08424645
:1016000053431B199BB25A46D15C40223800FFF766
:1016100017FEE9E70835EDB2554508D24B465B1990
:10162000F8D43722BA5C9342F4DA0024DEE7F0BC47
:10163000BB46B246A946A046F8BD00B583B03623E6
:10164000C35C3722825CC16B0191009200220021B1
:10165000FFF784FF03B000BDF8B50400002502E0E9
:10166000013532003900561E002A07D04F1C097878
:1016700023681B68200098470028F1D12800F8BD96
:1016800070B505000C1E09D0080013F017FC02000D
:101690002B685B6821002800984770BD0020FCE79C
:1016A00010B5FFF7EDFF10BD10B50B0009685A68C3
:1016B00003685B68984710BD064B1B6803600623F0
:1016C00003710233437100238371FE22C2710372DE
:1016D0007047C046A41A002010B500290CD0016044
:1016E0000B7803714B7843718B788371CB78C3711E
:1016F00000230372002010BD024806F0A7FA022062
:10170000F9E7C046305E011001727047007A7047F9
:1017100070B504000E0015000830FFF7CDFF094B2F
:10172000236000236360084A22606682A582A37555
:10173000A383E38320330122E254268365832000C0
:1017400070BDC046787B01108C810110F0B5DE467B
:1017500057464E464546E0B587B005008B46019298
:10176000190018202B5E5B4528DD1A202B5E934262
:1017700024DD287B5B461B1801331FDB6B7BDA42C1
:101780001CD4AA7B8A4226D8EC7B14198C4222DB1B
:10179000072426001E4003961C4200D07EE08A1AD1
:1017A000DB08434353439BB204339EB20027B84641
:1017B00004965B460593019B9B4667E0684806F0EC
:1017C00045FA02230393039807B0F0BCBB46B24628
:1017D000A946A046F0BDEB7BD318624806F066FA36
:1017E00003230393EFE73368DB68029347464F44D4
:1017F000BFB25246D5005D44ADB26519ADB23000FE
:101800000830FFF783FF03002AB239B23000029D8F
:10181000A8470134E4B2072C1DD8019B2341DB0704
:10182000E1D53368DD6843464B449BB20293524690
:10183000D3005B449BB2E3189FB230000830FFF73F
:1018400065FF01234340DBB23AB269460820095ED6
:101850003000A847DDE74746D04635004E46013701
:10186000BFB22A7BBA420DD9A968049BDB19404656
:1018700042439B18CB5C039C0193C246B846B146D9
:101880002E00C8E7434601339BB298466B7BDB08CA
:10189000434598D900263700059EE2E7891A43435D
:1018A000DB104B439BB204339BB29846AB68424675
:1018B0009B5C9A460726002399465B46029347E0C5
:1018C0002B68DB689B46029F4F44BFB2019B1A19ED
:1018D00093B2039328000830FFF718FF03006A460D
:1018E0000C21525E39B22800D847731E1EB21B0469
:1018F00020D4013424B26B7B9C4225DA5346334119
:10190000DB07DDD52B68DB689B46029F4F44BFB2E7
:10191000019B1A1993B2039328000830FFF7F6FED3
:1019200001234340DBB26A460C21525E39B22800E3
:10193000D847DAE7434601339BB29846AB68424644
:101940009B5C9A460726D4E74B4601331BB2994667
:101950002B7B994501DA0024CDE70023039332E77E
:101960006C5E0110B05E011010B504000B000A2976
:1019700020D00D2926D01E21425E1C20215E200091
:10198000FFF7E4FE00281FD1A38B227B9B181BB21C
:10199000A3832021615C002919D01820215E8A1AB6
:1019A000934216DDE38B627B9B18E3830023A383C2
:1019B000012006E0C38B427B9B18C38300238383F3
:1019C000012010BD0120FCE701204042F9E7012081
:1019D000F7E70120F5E7F0B5DE4657464E464546A7
:1019E000E0B585B0060091461F000EAA0023D45E24
:1019F0000FAA13789A464B46E31ADA179B185340FE
:101A000000937A1AD017121842409046934205DC90
:101A100022003C0017004A4689461100A14505DC1A
:101A20003A000F00110022004C4691464B461A1B0B
:101A300093B2029312B2C81BC51743196B400193AE
:101A4000D50FAD186D108F422ADB01235B42039343
:101A50000FE03368DB689B4653463A0021003000B4
:101A6000D847019BEB1A9AB21DB21B040FD4013464
:101A700024B24C4517DC009B4345EADD3368DB6844
:101A80009B465346220039003000D847E9E7039BC4
:101A90009C4667443FB2029B9C46624415B2E6E70F
:101AA00001230393E5E705B0F0BCBB46B246A94667
:101AB000A046F0BD30B583B006AC2578D418A4B2EA
:101AC000013C019524B200940B00FFF784FF03B0A2
:101AD00030BD10B582B004AC2478CB189BB2013B6A
:101AE0001BB201940092FFF776FF02B010BDF0B573
:101AF000CE46474680B583B005000C0016009946D7
:101B00000AAB00229B5E98460BAB1F7800974B46B2
:101B10003200FFF7DEFF4346F21892B2013A12B2EA
:101B200000974B4621002800FFF7D3FF009743465C
:101B3000320021002800FFF7BDFF2100494489B28F
:101B4000013909B20097434632002800FFF7B2FF7F
:101B500003B0C0BCB946B046F0BDF0B5D6464F465E
:101B60004646C0B582B080460D0017001E000AAB85
:101B700000229B5E9A460BAB1B7899460C0009E04D
:101B80004B46009353463A0021004046FFF792FF30
:101B9000013424B2AB199C42F2DB02B0E0BCBA467D
:101BA000B146A846F0BD00B583B01822835E01910E
:101BB0001A21425E009200220021FFF7CEFF03B0FF
:101BC00000BD8183C2837047807D7047F0B583B0CC
:101BD00004000F001600002916D101AB1A705A70CC
:101BE0009A700022DA7001AB5A781202187810430A
:101BF0009A781204464908401043DB781B0600021D
:101C0000000A184303B0F0BD2B2104F0C5FEC1B299
:101C10002B235B424B43E31806245C43E4B2FF23CF
:101C2000DA1B72431212D2B26846C27025007D439D
:101C30002D125D1B75432D12EDB2684685701C1B7D
:101C40007C4324121B1B73431B12DBB26846437098
:101C500004294ED889002F4841588F4601A90E709B
:101C60004B708A709A4205D36B4601331A7801ABE8
:101C7000DA70B8E76B460333F8E701AB1D705E70AE
:101C80009A70AA4205D36B4602331A7801ABDA7018
:101C9000A9E76B460333F8E701A90A704E708B7011
:101CA0009A4205D36B4601331A7801ABDA709AE792
:101CB0006B460333F8E701AB1A705D709E70AA4261
:101CC00005D36B4602331A7801ABDA708BE76B46AB
:101CD0000333F8E701A90B704A708E709A4205D35E
:101CE0006B4601331A7801ABDA707CE76B4603333D
:101CF000F8E701AB1E705A709D70AA4205D36B467F
:101D000002331A7801ABDA706DE76B460333F8E7FC
:101D1000FFFF00FF9C810110024B0360024B036038
:101D20007047C04694820110B45B011010B5C068C2
:101D3000002802D00368DB69984710BD0020704777
:101D400010B5040002F0D0FC210002F081FD10BDAE
:101D500010B5002B02DB0260436010BD024B034A4A
:101D600003483F2103F016FC485C0110645C01103D
:101D70009C5C011010B5040002F00CFF02000B0087
:101D80002000FFF7E5FF200010BD000070B5060041
:101D900014001D00FA22920000230498002105F08F
:101DA00039FC02000B0012196B41002B04DB3000E0
:101DB000FFF7CEFF300070BD01225242004BF6E724
:101DC000FFFFFF7FF0B5C64600B586B080460C0029
:101DD00015001E000CAB1F7804A8FFF7CBFF049A78
:101DE000059B009404A8FFF7D1FF049A059B029776
:101DF00001960095404602F08DFC06B080BCB846C6
:101E0000F0BDF0B583B004000D0016001F0002F015
:101E10006BFC009733002A002100FFF7D3FF03B0CB
:101E2000F0BD000010B50400044B0360044B0360D8
:101E3000102109F01BF8200010BDC046948201104B
:101E4000B45B011010B5044B0360044B0360102118
:101E500009F00CF810BDC04694820110B45B01106B
:101E600010B50400024B036009F070FA200010BDA9
:101E70006C82011010B50400044B036009F066FA8F
:101E80000421200008F0F2FF200010BD6C82011038
:101E900010B50400024B036009F058FA200010BD91
:101EA0008082011010B50400044B036009F04EFA63
:101EB0000421200008F0DAFF200010BD808201100C
:101EC00010B50C4B00221A700B4C2000FEF71FFDC2
:101ED0002000FEF7BDFD094C2000FFF732FB00217A
:101EE0002000FFF760FE2000FFF7A7FB2000FFF7B0
:101EF00020FB10BDAA1A0020AC3300204C2B002080
:101F000070B504001248210005F0D0FE114B19688D
:101F1000002905D1002C0DD10F4805F097FE70BDAA
:101F20000E4805F0C3FE0B4D2868FFF709FF00239C
:101F30002B60EFE70A48210005F0B8FE09490123AC
:101F400000222000FFF75DFF024B1860E4E7C04667
:101F5000045F01101C340020EC600110385F011098
:101F6000645F0110A132001070B505000D4B012215
:101F70001A700D4C2000FFF7ABF92000FFF7E1FAD3
:101F800000212000FFF70FFE2000FFF756FB002D79
:101F900003D00648FFF7B4FF70BD0020FFF7B0FF85
:101FA000FAE7C046AA1A00204C2B0020C8320000D5
:101FB00010B504000800172C13D80B2C08D90B49B6
:101FC000032205F06BFC0C2C07D90C3CE0B210BDD1
:101FD0000749032205F062FCF5E7002C03D020003E
:101FE000F5E7FF20F3E70C20F1E7C0468C5F011016
:101FF000905F0110F0B5C64600B584B00390234B46
:102000001B78002B34D103AB02241C57002C37D192
:102010005F78013FFFB206341D4DBF001D4E795958
:102020003000FEF78CFCA40001230022615930002F
:10203000FEF77DFC0123172261593000FEF777FC83
:102040000423984600930F337A5961593000FEF704
:1020500086FC43460093033B625979593000FEF7F2
:102060007EFC3000FEF7F4FC04B080BCB846F0BD46
:10207000084C2000FEF74BFC2000FEF7E9FCF3E7DC
:1020800003AB5F78E4B2013CE4B2C5E764360020FC
:10209000D8330020AC33002000B583B00E4B1B6852
:1020A000E022D20113400D4A13600D4B04221A6046
:1020B000094B1B68DB05FBD5074B586880B2094A02
:1020C000101A80B2FF230093D73B002101F080F962
:1020D000C0B203B000BDC04600C0044000D0044000
:1020E00000E00440FF0F000010B5054C0A2200215B
:1020F0002000FEF79BFC2000FEF7AAFC10BDC046A6
:10210000AC33002010B582B0C823124A124C1349D8
:10211000097801911249097800915B003C21200067
:10212000FFF796F90F4B8022D200009240228021C7
:102130002000FFF76BF80120FFF716FFFFF7ACFF59
:102140000100094B1800FEF721FBFFF7CDFF02B09D
:1021500010BDC046901B00204C2B0020A1CB0110CD
:10216000A2CB0110902B0020AC33002030B583B0FF
:1021700000252CE06300E31859006B00EB185A00AF
:1021800014322C311B480123019304330093FFF7D1
:10219000AEFC0134E4B2062C17D8631CEA00521BD3
:1021A0009B18154A12789342E4D16300E318590052
:1021B0006B00EB185A0014322C310E4801230193A6
:1021C00004330093FFF7C9FCE3E70135EDB2062DB8
:1021D00001D80024DFE7084A13780133DBB213701B
:1021E000312B02D9130001221A70FFF77DFF03B0D3
:1021F00030BDC0464C2B0020A81A002070B598B006
:102200000390CD4907A801F03FF903AB00255D57C6
:102210006C1EE4B2002308E0C84A1278D21A514278
:102220004A4105A9CA540133DBB2052BF4D9C4488D
:10223000FFF787F9C14B1B78002B6FD1302C6AD880
:10224000C04B1A6816929A8816AB9A8003AB012687
:102250009E57002E0EDDBC49320015A804F01AFB73
:1022600003AB02229A56002A0BDDB84913A804F0EA
:1022700011FB06E0B64B1593B64B139313AB00223C
:102280001A71AF48012301930F330093703300227A
:102290000021FFF762FCAA4800221D21FFF791FCF4
:1022A000AD49AE48FFF718FAAC480121FFF72CFA08
:1022B000A34816A9FFF7F4F9A14810222421FFF73B
:1022C00080FCA749A548FFF707FAA4480021FFF7BB
:1022D0001BFAA4492A000EA804F0DCFA98480EA9BB
:1022E000FFF7DEF9A0499D48FFF7F6F9002E08DD5B
:1022F000934830220121FFF764FC914815A9FFF7AC
:10230000CFF98F4830224721FFF75BFC8C4813A997
:10231000FFF7C6F9FCE0FFF729FFFBE0934B587984
:1023200011A9FFF745FE0600914B58790FA9FFF759
:102330003FFE05008F4B16938148012301930F3315
:102340000093703300220021FFF707FC7C48002235
:102350002B21FFF736FC80498048FFF7BDF97F4805
:102360000121FFF7D1F9764816A9FFF799F97B48C3
:102370000021FFF7C9F9724810220021FFF721FC64
:102380007D496F48FFF78CF96D4820220021FFF747
:1023900018FC7A496A48FFF783F96948302200211E
:1023A000FFF70FFC76496648FFF77AF975496B48E5
:1023B000FFF792F905AB5B78002B0DD06748012140
:1023C000FFF7A2F95E48012301930F3300935A33BC
:1023D00010221621FFF7C1FB594810221621FFF7E2
:1023E000F0FB07AB1A7E5F490EA804F053FA54487D
:1023F0000EA9FFF755F9524810223A21FFF7E1FBE9
:102400004F4807A9FFF750F905AB99785348FFF7F4
:102410007BF94B4820221E21FFF7D3FB51493200A4
:102420000EA804F037FA46480EA9FFF739F94448D8
:1024300020223A21FFF7C5FB48480021FFF764F945
:1024400051493F48FFF72CF905ABD9784348FFF7CE
:102450005BF93B4820224821FFF7B3FB434B0622A0
:102460009A564A490EA804F015FA35480EA9FFF706
:1024700017F93A480021FFF747F931482022642133
:10248000FFF79FFB2E4811A9FFF70AF905AB197951
:102490003248FFF739F92A4830221E21FFF791FB15
:1024A00030492A000EA804F0F5F925480EA9FFF7D7
:1024B000F7F8234830223A21FFF783FB2748002111
:1024C000FFF722F930491E48FFF7EAF805AB5979C2
:1024D0002248FFF719F91A4830224821FFF771FB0B
:1024E000234B06229A5629490EA804F0D3F9144822
:1024F0000EA9FFF7D5F819480021FFF705F9104894
:1025000030226421FFF75DFB0D480FA9FFF7C8F8E3
:10251000302C03D90A48FFF790F803E00398FFF73F
:1025200069FDF7E707A809F041FE18B070BD07A8DC
:1025300009F03CFE08F0AAFD203500206636002098
:102540004C2B0020945F01109C5F0110A45F0110D0
:102550002020200020202020A4B60110542B002091
:10256000A8820110AC5F01103CAC0110B41A00202D
:10257000AC1A002053455400B05F0110985F011061
:10258000046101100CC101109C720110B45F0110B4
:1025900030B5100000E0C968002906D00D691C683C
:1025A000A542F8D308008968F6E730BD10B50B00E6
:1025B0008168021DFFF7ECFF10BD70B50D0081684A
:1025C000041D2B002200FFF7E3FF844203D02A689A
:1025D00003699A4200D2200070BD70B504000D68F6
:1025E0000368AB420AD0002D02D06B6801336B60E8
:1025F0002068002801D0FDF793FE2560200070BD03
:1026000030B5100000E0C968002906D00D691C68CB
:10261000A542F8D308008968F6E730BD10B50B0075
:102620008168021DFFF7ECFF10BDF0B5C64600B58E
:10263000804617008C680D1D012302E0E26825002A
:102640001400002C08D03E682569AE429B415B42D5
:10265000AE42F3D2A268F2E72800002B04D0CB6888
:10266000AB420CD009F056FC02693B689A420AD290
:1026700043461C605D60404680BCB846F0BD4346A2
:102680001C605D60F7E743461860002342465360D4
:10269000F1E7F0B5C64600B504000E0015001F00B6
:1026A0000A1D954213D03A6890462A6942452FD9AF
:1026B000CA68AA4220D0280009F02CFC03694345CF
:1026C00020D2C368002B1AD02560656010E04B69EA
:1026D000002B08D00B691A693968914203D900228E
:1026E0000260436004E03A0031002000FFF79DFFE4
:1026F000200080BCB846F0BD02604260F8E723606D
:102700006060F5E73A0031002000FFF78EFFEFE749
:1027100042451BD20A69AA420BD0280009F0E2FB0D
:10272000036998450CD2EB68002B06D020606060EE
:10273000DEE7002303604260DAE723606560D7E7E5
:102740003A0031002000FFF770FFD1E70560002359
:102750004360CDE770B504001D00002909D00120B9
:10276000231D290009F0F2FB63690133636128002E
:1027700070BD031D9A4205D02B691169994203D897
:102780000020EDE70120EBE70120E9E710B582B07A
:1027900004000091019200686368FFF7DBFF0023EB
:1027A000636002B010BD000070B504000D0000238E
:1027B0000360102009F0EEF90DE008F045FD002D52
:1027C00003D02B68DB692800984709F0ABF908F0C3
:1027D00075FD08F05BFC054B0360012343608360DB
:1027E000034B0360C5602060200070BDB45B011026
:1027F00094820110F0B5C64600B5804617008C687B
:102800000D1D012302E0E26825001400002C08D011
:102810003E682569AE429B415B42AE42F3D2A2685C
:10282000F2E72800002B04D0CB68AB420CD009F0B3
:1028300071FB02693B689A420AD243461C605D60A4
:10284000404680BCB846F0BD43461C605D60F7E77B
:1028500043461860002342465360F1E7F0B5C64690
:1028600000B504000E0015001F000A1D954213D08C
:102870003A6890462A6942452FD9CA68AA4220D0B0
:10288000280009F047FB0369434520D2C368002BA9
:102890001AD02560656010E04B69002B08D00B69E9
:1028A0001A693968914203D900220260436004E04A
:1028B0003A0031002000FFF79DFF200080BCB846A1
:1028C000F0BD02604260F8E723606060F5E73A001F
:1028D00031002000FFF78EFFEFE742451BD20A6967
:1028E000AA420BD0280009F0FDFA036998450CD2E2
:1028F000EB68002B06D020606060DEE700230360F9
:102900004260DAE723606560D7E73A0031002000D3
:10291000FFF770FFD1E7056000234360CDE770B596
:1029200004001D00002909D00120231D290009F001
:102930000DFB636901336361280070BD031D9A427A
:1029400005D02B691169994203D80020EDE70120D9
:10295000EBE70120E9E710B582B004000091019295
:1029600000686368FFF7DBFF0023636002B010BDFF
:1029700010B5074B8B4204D32C20484309F00AF9C9
:1029800010BD044B994201D909F0B2FB09F0A0FB3C
:102990002EBAE8025D74D1050B6803607047000031
:1029A00010B5084B8B4205D3C800401A800009F0CF
:1029B000F1F810BD044B994201D909F099FB09F0D7
:1029C00087FBC046244992044992240910B50400AB
:1029D0004168002902D00068FDF7FAFC200010BD14
:1029E00010B504004168002902D00068FDF7C4FC5E
:1029F000200010BD10B5040013681B6808C0182221
:102A0000002104F045FF00232372E3602200083216
:102A100022616261A361200010BD70B582B0150013
:102A200000220121FFF7A4FF040006001036290050
:102A300001A8FFF7B1FF002301AA00213000FFF732
:102A4000D9FF200002B070BD30B585B004000D0084
:102A500011001A000290089BFFF7DFFF03000390AC
:102A600010332A0021006846FFF713FE019B002B5C
:102A70000BD000991A0002A8FFF788FE040002A8F4
:102A8000FFF7A4FF200005B030BD009CF7E7000071
:102A900030B585B004000D00FFF7C0FD231D010017
:102AA000834203D02A6803699A4207D20295054AF5
:102AB00003AB009302AB2000FFF7C6FF143005B054
:102AC00030BDC04674CB011013681B68036000233F
:102AD00043608360704770B582B015000022012109
:102AE000FFF75EFF040006001036290001A8FFF77B
:102AF00053FF002301AA00213000FFF7E5FF20006B
:102B000002B070BD30B585B004000D0011001A0090
:102B10000290089BFFF7DFFF0300039010332A00A9
:102B200021006846FFF79AFE019B002B0BD000990D
:102B30001A0002A8FFF70FFF040002A8FFF750FFDA
:102B4000200005B030BD009CF7E7000030B585B02F
:102B500004000D00FFF72AFD231D0100834203D06E
:102B60002A6803699A4207D20295054A03AB00938B
:102B700002AB2000FFF7C6FF143005B030BDC046E1
:102B800074CB0110F0B5DE4657464E464546E0B5DB
:102B900091B005000C00099208931AAB80CB1B780A
:102BA00098461CAB1B7899461DAB1B789A461EAB0A
:102BB0001B789B464F4B994228D04F4B994228D1C6
:102BC00001230D934D4E0DA93000FFF761FF09A9B8
:102BD000FFF7F3FC07900DA93000FFF759FF043011
:102BE000079B834227D1202008F0D4FF0600099AD2
:102BF0005B460493534603934B460293434601932B
:102C00000097089B2100FEF799F926E000230D9319
:102C1000D8E7042008F08CF90400042008F0BAFF7B
:102C200000220260364B0360364B03602060364959
:102C3000200008F05DFF042008F07AF90400042069
:102C400008F0A8FF002202602D4B03602F4B0360A9
:102C500020602F49200008F04BFF0B9631000CA894
:102C6000FFF7A2FD25480DA9FFF712FF09A9FFF7FD
:102C70006DFF0B9B08C00CA9FFF7AFFC0B9B0E93DD
:102C80000C9B0F93002B02D05A6801325A600EA998
:102C90002800FDF76FFD0F98002801D0FDF740FBDD
:102CA0000C98002801D0FDF73BFB280011B0F0BCC8
:102CB000BB46B246A946A046F0BD200008F04EF93A
:102CC00008F0E4F9200008F049F908F0DFF92021C4
:102CD000300008F0CBF808F0D9F90F98002801D09F
:102CE000FDF71EFB0C98002801D0FDF719FB08F03A
:102CF000CDF9F7E700002050000030508823002075
:102D0000B8D301106C82011024820110808201105E
:102D10005482011030B587B004000AA820C800789A
:102D200000280ED002281BD000200490033003900E
:102D3000023802900130019000952000FFF722FF39
:102D40000BE000200490033003900138029001381A
:102D5000019000952000FFF715FF200007B030BD5F
:102D6000042004900138039001380290013801904A
:102D700000952000FFF706FFEFE7000010B582B0D6
:102D8000224B00221A719A60191DD96019615A618B
:102D90001F4840328021FEF7F9F91E481E4B1B7870
:102DA000012201921732009200221C49FFF7B2FF64
:102DB0001B4CFF22FF217C20FEF708FF2060FF2232
:102DC000FF210020FEF702FF6060FF22FF21552057
:102DD000FEF7FCFEA060FF22FF21C620FEF7F6FEF4
:102DE000E060FF22FF211520FEF7F0FE2061FF22A8
:102DF000FF212B20FEF7EAFE6061FF220021002068
:102E0000FEF7E4FEA06102B010BDC046882300209A
:102E10004C2B0020AC330020A0CB01100000205030
:102E2000D833002010B5FFF7A9FF10BD044B0022D6
:102E30001A719A60191DD96019615A617047C046AC
:102E4000A023002010B5174B1A68C0239B015340E4
:102E5000E022D2011340144A1360144B04221A607A
:102E6000104B1B68DB05FBD50E4B5A6892B2002352
:102E70000F4991425B41DBB20E4A13700B4B0422A7
:102E80001A60084B1B68DB05FBD5064B5968094BDC
:102E90001A78D2B20904090C074804F007FF012090
:102EA00010BDC04600C0044000D0044000E0044013
:102EB0007606000064360020BC5F011010B50400E7
:102EC0001F2100F037FB00220021200000F04AFB08
:102ED0000021200000F016FC10BDF0B5C64600B57C
:102EE00084B004000E0017001D0001F0FDFB8046B9
:102EF000E117FA2292000023200004F08BFB02006D
:102F00000B00029501970096404601F0FFFC04B0CB
:102F100080BCB846F0BD000010B582B0114B002255
:102F20001A70114C0121200000F09AFA200000F0E4
:102F300071FA01AB18700204120E5A700002000EF2
:102F400098701B785BB2002B07DD0020FFF70CF8B0
:102F50000648FEF7D5FF02B010BD0120FFF704F8C8
:102F6000F9E7C046663600202035002080A812010F
:102F700000B583B0124B1B78002B0BD1104B1B7884
:102F8000002B16D0D0231B06802292045A61012008
:102F900003B000BD0B4800F03DFA01AB187002040D
:102FA000120E5A700002000E98700198FFF726F971
:102FB000E4E7D0231B06802292049A61E7E7C0462B
:102FC000AA1A00202035002010B5FFF765F801008F
:102FD000044C2000FDF7DAFB2000FDF739FD01204D
:102FE00010BDC046AC33002010B5074807F024FCE4
:102FF000462001F00DFE0549054807F093FC4620E8
:1030000001F006FE10BDC046B41A0020192F0010B2
:10301000AC1A002010B5264800F097FBD0231B0601
:10302000802292045A62E02292019A6200220121D7
:103030000B2000F097FA002201210C2000F092FAF8
:10304000002200210D2000F08DFA07F043FB1A202A
:10305000FFF734FF1D20FFF731FF01220C210B2069
:1030600000F0E4FA01220C210C2000F0DFFA114BF1
:1030700001220C210D2000F0E9FA0F4B0F4900222C
:103080000F48FFF72AFF0F4B0F49642000224042F0
:10309000FFF723FF0D4B0E4900220E48FFF71DFFDF
:1030A00007F094FBFFF7A0FFFFF72CF810BDC04618
:1030B000003800023133001078220020712F0010F8
:1030C000B3FEFFFF48220020C92F0010602200201D
:1030D000452E0010A015FFFF10B504F0F3FDFA20F7
:1030E000800001F0A6FCFFF795FF7BE05F4B1978AD
:1030F00049B25F4804F0DAFD5E4B1B78052B09D816
:103100009B005D4AD3589F46584B197849B25B489B
:1031100000F0A6F9554B00221A7068E0534B1A785C
:1031200052B257494B799B185BB24B71002B08DBAD
:10313000534B5B795BB2172BECDD514B00225A717C
:10314000E8E717224A71F3E7484B1A7852B24C4924
:103150008B799B185BB28B71002B08DB484B9B79FA
:103160005BB23B2BD6DD464B00229A71D2E73B2265
:103170008A71F3E73D4B1A7852B242494B799B185A
:103180005BB24B71002B08DB3E4B5B795BB2172BBC
:10319000C0DD3C4B00225A71BCE717224A71F3E7AD
:1031A000324B1A7852B237498B799B185BB28B71CC
:1031B000002B08DB334B9B795BB23B2BAADD314BF9
:1031C00000229A71A6E73B228A71F3E7FFF70CFF12
:1031D000284B00221A702C48FEF792FE2B4B1B78CE
:1031E000002B23D1214B1B78002B00D07EE7284BEE
:1031F0001B78002BF2D0264B00221A70254804F0D1
:1032000025FD1C4B1B78002BE0D11A4B01221A70B4
:103210000020FEF775FE1A4807F042FB1E4B1B7894
:10322000002BDBD10020FEF79FFED7E7174B0022D3
:103230001A701A4804F00AFD0E4B1B78002B0BD1B4
:10324000154B1B78002B03D10120FEF78DFEC9E73B
:103250000D48FEF755FEC5E70133DBB2054A137092
:10326000052BBFD9130001221A70BBE75F3600207F
:10327000006001106636002078CB01102035002058
:10328000B41A0020AC1A0020C832000067360020B3
:10329000623600201C600110AA1A00202C60011068
:1032A00010B5054804F0D2FC044B00221A60FEF76A
:1032B00007FE0020002110BD3C6001101C340020DE
:1032C00010B5D02109064A68D20A01231A4049687C
:1032D000090B0B40134C207880000C210140520058
:1032E0008A189B182370104AD356104A11685B182D
:1032F00013609A0713D1042B06D0043309D00B4B6B
:1033000000221A60002010BD084B00221A60012024
:10331000F9E7064B00221A6001204042F3E7002043
:10332000F1E7C046A91A002090CB0110C823002065
:1033300070B504000D001D4B996A1D482B0022003A
:1033400004F0B4FC0C2C08D90D2C0CD1082D0BD09A
:10335000164B9A6A174B1A6005E00B2C03D3FFF744
:10336000AFFF154B187070BD104B996A114B1B685D
:10337000CB1A124A934203D90E4A1268002A0BD183
:103380000C4A12680E4804F091FC0E4B01221A7090
:10339000084B00221A60E6E7064A12680A4804F061
:1033A00085FC0A4B01221A70F2E7C0460040054036
:1033B00060600110982F00205F360020C0C62D00ED
:1033C000BC60011067360020886001106236002062
:1033D00010B51C00431A0298001B5843511A03F001
:1033E000DBFA001910BD10B5FFF720FD10BDFE235C
:1033F00003700C3B4370E33B83701E33C370053393
:103400000371704710B50248FFF7F1FF10BDC046C9
:103410002035002010B582B0002404576B461C7084
:103420000721200003F090FA6B4658700721200016
:1034300003F08AFA6B46997001AB6A4612881A80CB
:103440006A4692789A705A781202187810439B78DC
:103450001B04024A1040184302B010BDFFFF00FFDA
:103460000378591849B201700423C356994207D012
:10347000002282560123C3569A4200DA0370704735
:1034800031230370F4E7000010B504000300083393
:1034900003600023436003720023CB5603228A5645
:1034A000934206DA02228A5693421EDD0F225242CE
:1034B00001E02C225242DBB29B1823760023CB562C
:1034C00004228A5693421CDA01228A56934218DB60
:1034D00002228A5693420FDD03228A56934206DB6C
:1034E0000E49200008F094FF15E00F22E3E70C4995
:1034F000200008F08DFF0EE00A49200008F088FF48
:1035000009E00949200008F083FF04E0200008F0EA
:103510004DFE07F0BBFD200010BDC046F06001105D
:10352000F8600110006101100861011010B5FFF78B
:1035300069FF10BD10B58300084A944663441A68B9
:1035400040246240803414408022520113431C60A6
:10355000C000034B9C466044416010BD04C0014064
:103560000040014080000B4B9C46604400290DD078
:103570000823002A0CD004221343026853400C2273
:103580001A4080235B0103431A6070470023F0E771
:103590000022F1E704C0014070B50400D0231B06EF
:1035A0001D680D4BAA00D358002B0AD0002803D069
:1035B000094BAD00EC5070BD08490D2000F04EFBEA
:1035C000F6E70028F7D0044BAD00E850034900228D
:1035D0000D2000F03BFAEEE7A82A00206D3600101F
:1035E000072303409B00C00899403C308000014BFA
:1035F000C150704700400140F8B507000C001600AC
:103600001D00FFF7EDFFFB089B00ED180720384079
:1036100080008440002E04D080239B012B431C603B
:10362000F8BDC0239B012B431C60F9E710B5D023E4
:103630001B061B68002B03D0024BFFF7DDFF10BDFC
:10364000014BFAE7304101400041014070B51400E0
:103650001D00FFF7EBFF2800FFF79EFF002C00D1B5
:1036600070BD01210D2000F09DF9F9E7F0B5D646B7
:103670004F464646C0B5D0231B061F681D4BBA00F7
:10368000D3589846002F03D01B4B9946002623E0C1
:103690001A4B9946FAE724090135002C1BD0330058
:1036A0000833AB4217D90F231A0022409246234217
:1036B000F1D0134BBA00D2580123AB401342EAD1E8
:1036C00051462800FFF78CFF4346002BE3D05146BC
:1036D0002800C047DFE708361D2E06D8F308083358
:1036E0009B004A469C583500D7E7E0BCBA46B14635
:1036F000A846F0BDA82A0020304101400041014009
:103700000C340020002909D08000094B9C466044FD
:1037100080239B01034340221A6070478000044BC2
:103720009C466044C0239B01034340221A60F4E797
:1037300004C0014010B501238340D02212069362D9
:1037400093610521FFF7F6FE10BD70B5050000245A
:1037500001E06D0801341D2C05D8EB07F9D52000D8
:10376000FFF7E8FFF5E770BD034B1B680220184028
:10377000431E9841C0B2704700C00640EFF310806E
:1037800072B6034B1B68002BFBD0BFF35F8F7047F3
:103790002C0100D0BFF35F8F024B00221A6080F330
:1037A000108870472C0100D0F8B506000C001500F9
:1037B000FFF7E4FFE308F718F15C0722224001233A
:1037C00093400B4205D1DBB20B433B70FFF7E2FFA6
:1037D000F8BD2100280001F075FFF0B583B00600A8
:1037E000019114001F00FFF7C9FF00E00134BC4243
:1037F0000CD8E308F518F35C0721214001228A4028
:103800001A42F3D1D2B21A432A7001E00124644271
:10381000FFF7C0FF002C02DB200003B0F0BD019BCE
:10382000002BF9D0089801F04DFF0000002307E0BD
:10383000054A9A189200BFF35F8F0021116001338F
:103840001F2BF5D97047C04640000034054A107858
:10385000431CDBB21370172B02D9130010221A700D
:103860007047C046BC1A002010B582B00100054C5C
:10387000054B00931F2318222000FFF7AEFF02B074
:1038800010BDC046B82A002010610110074B9B688C
:10389000103080001950BFF35F8FBFF35F8F044B70
:1038A0000021196082F310887047C04600ED00E0E7
:1038B000240100D010B50388DA0A1C2A05D15B0563
:1038C0005B1502335B00C01810BD034B034A04486C
:1038D000B12101F05FFEC0462C610110F8CB011050
:1038E0004461011010B5091A0B1F0A4A88180A4AC8
:1038F000904208D8C90706D45B105B055B0D0748EA
:10390000184380B210BD064B064A0748A32101F0B8
:1039100041FEC046FC070000FE0F000000E0FFFF74
:1039200088610110ECCB01104461011010B5091A37
:1039300004394A08090B08D14905490D064B0B43C8
:103940000380064B1343438010BD054B054A0648D0
:10395000AB2101F01FFEC04600F0FFFF00F8FFFFA3
:10396000B8610110C0CB01104461011001238340F4
:10397000034A10681840431E9841C0B27047C046C1
:1039800000E100E0002904D0034B1860034B1860ED
:103990007047034B1860FBE780E200E000E100E0C5
:1039A00080E100E010B5012383401800FFF7EAFF33
:1039B00010BD000001238340014A13607047C046D8
:1039C00000E200E0024B9B6810308000C058704756
:1039D00000ED00E010B5FFF7F5FF002805D0054B1E
:1039E000C01A2F2803D8012010BD0020FCE70020BA
:1039F000FAE7C046C01A002070B504000D00EFF3CE
:103A0000108672B60C4B1B68002BFBD0BFF35F8F88
:103A10002000FFF7D7FF094B984201D0A84205D1FB
:103A2000320029002000FFF731FF70BD044B054A2A
:103A30000548862101F0AEFD240100D0CD01001023
:103A4000C861011020CC011044610110F0B5DE46C0
:103A500057464E464546E0B589B08146019115006E
:103A6000EFF3108A72B66D4B1B68002BFBD0BFF3CF
:103A70005F8F6B4B00269E57002E41DB7400A4190C
:103A8000A400684824180622A256654B1A70664B9B
:103A90009A684B4610339B00D35898461F00181A5B
:103AA0002F2839D9614B984530D105AF604B3B8009
:103AB000604973009B46981980005A4B98464044D1
:103AC0000230FFF70FFF78805B4BBB80FF23BB7199
:103AD000FD71019B079333005B449B00434407CF78
:103AE00007C301231C43A046524641464846FFF700
:103AF000CDFE09B0F0BCBB46B246A946A046F0BD1B
:103B00004E4B4F4A4F48D72101F044FD4E4B4C4A93
:103B10004C48DE2101F03EFD01380C2102F03CFF53
:103B2000002912D101239F43BB463B000027DA79CD
:103B3000AA4211D90621595600290CDB4A00521815
:103B4000920038491F008B18F1E7404B3C4A3D4832
:103B5000EA2101F01FFD1F00002F2ED005AB3C4ACB
:103B60001A80813A5A800623FB560293002B17DAFB
:103B7000384805AB9B469880029A9A71DD71019A8C
:103B80000792381D2100FFF7ADFEB880BE71254BAE
:103B90007200921992009B185A4613CA13C3A3E7E6
:103BA000381DFFF787FE01007000801980001D4B53
:103BB000C0180430FFF796FEDBE705AF1C4B3B80D7
:103BC0001C49730002939B199B00164A90461A00E9
:103BD00042440392901CFFF785FE7880039A101DE3
:103BE0005946FFF77FFEB8801B4B5A464146521A92
:103BF000524153431B0DBB71FD71019A0792029B09
:103C00009B199B00434407CF07C3114B5A461380AF
:103C1000813B538001231C43A04665E7240100D06B
:103C200060360020C01A002000ED00E0CD01001039
:103C300000A1FFFFF01A002001BDFFFF006201108C
:103C400008CC01104461011028620110506201107B
:103C50000148000001BD0000AAAA0000F0B5CE4650
:103C6000474680B583B006000D00EFF3108872B6AA
:103C70004F4B1B68002BFBD0BFF35F8F4D4B9A68F7
:103C800034001034A300D7584B4B9F4207D0AF42AB
:103C900000D18BE00197494BFB1A2F2B09D94246E3
:103CA00039003000FFF7F2FD03B0C0BCB946B046A2
:103CB000F0BD3000FFF75AFE814600213000FFF7CB
:103CC00071FEBFF35F8FEFF30581002901D08C42B5
:103CD00011D10123019C9C430020A368AB4212D068
:103CE0000622A256002A0DDB53009B189B00334A84
:103CF0002000D418F1E7324B324A36213248FF31E6
:103D000001F048FC2000AB4249D106256557002D43
:103D10002BDB2A4B6A00521992009B189A68A2600A
:103D2000DA79E2719B795BB2A371002B0FDA274835
:103D3000A080224B6A00521992009B18244A1178E5
:103D40009971157049463000FFF72CFEA7E768000F
:103D500040198000194BC0180430FFF7ABFD01007B
:103D6000231D1800FFF7BEFDE2E7002912D100284D
:103D70000ED0FF238371174B838015490B78A371F5
:103D80000E4A154BA41A644163431B0D0B70D9E70F
:103D9000094FF2E71149201DFFF7C8FDD2E7104B8C
:103DA000084A6A210848FF3101F0F4FB024F76E728
:103DB000240100D000ED00E0CD010010C01A002069
:103DC000C4620110D8CB01104461011001BD000094
:103DD0006036002001BDFFFFAAAA0000FA1A0020E9
:103DE000F862011070B5012202432E4BD31A2F2B1B
:103DF00028D8EFF30583002B2BD0EFF3108C72B68D
:103E0000294909680029FBD0BFF35F8F254C27495A
:103E100005002D1B6D416943090D4CB22449896889
:103E20009B00C95891421BD00021032932D81D4B59
:103E30004A00521892009B189B795BB2A3421FD094
:103E40000131F2E71B4B1C4AC7211C48490001F015
:103E5000A1FB1B4B184A92211848FF3101F09AFB35
:103E6000134A92681749D150174B1A7882711C7007
:103E7000BFF35F8F0C4B00221A608CF3108870BD6B
:103E8000084B4A005518AD005D19FF26AE710F4A68
:103E9000AA80E9E70E4B084AD1210848490001F001
:103EA00079FBC046C01A0020240100D0AAAA000055
:103EB00000ED00E000630110A4CB0110446101108B
:103EC00028630110CD0100106036002001BDFFFF06
:103ED000346301100022044B02E0044902C30132A2
:103EE000072AFAD97047C04600E400E0808080804D
:103EF00010B582B00100074C074B00930523002248
:103F00002000FFF76AFC002801DB1F23181A02B00B
:103F100010BDC046693600203C630110024B9C4630
:103F200061448900016070474000003410B5002BE7
:103F300002DB0260436010BD024B034A03483F218D
:103F400001F028FB485C011060CC01109C5C011062
:103F500070B582B0060014001D00FA229200002302
:103F60000698002103F056FB02000B0012196B416A
:103F7000002B09DB6846FFF7D9FF009A019B3260EE
:103F80007360300002B070BD01225242004BF1E775
:103F9000FFFFFF7F10B582B0040000F0FBFD0200C0
:103FA0000B006846FFF7C2FF009A019B2260636026
:103FB000200002B010BD30B585B004000D0002A88D
:103FC000FFF7E8FF029A039B00952000FFF7C0FF70
:103FD000200005B030BD10B50400FFF737FC01002C
:103FE0002000FFF79BFFFF232371BFF35F8F10BDFE
:103FF00010B50400FFF72AFC01002000FFF78EFF38
:10400000FF23237100236371BFF35F8F10BD000096
:10401000034B9C46614489000160BFF35F8F70478A
:104020004000003410B504000120FFF71DFC010022
:104030002000FFF7EDFF10BD084B5B6A994209D8DD
:10404000064A926A824207D2994201D0012002E0D8
:10405000002000E0002070470120FCE70040054000
:1040600010B500290AD003681B7B8B4206D38068F9
:10407000054B9C4661440901401810BD034B044A9E
:1040800004483C2101F086FAFFFFFF0FEC630110AA
:1040900064CD011010640110F8B504001700FFF79B
:1040A000DFFF0668456839002000FFF7D9FF026886
:1040B00043680120AB4201D802D00020C0B2F8BD55
:1040C000B242FBD8F9E7000010B5002B02DB02601A
:1040D000436010BD024B034A03483F2101F05AFAE6
:1040E000485C011030CD01109C5C011010B582B00D
:1040F00004000498059912184B41002B09DB68460F
:10410000FFF7E2FF009A019B22606360200002B08B
:1041100010BD01225242014BF1E7C046FFFFFF7F75
:1041200010B5002908D0037B8B4205D300684B00F3
:104130005B18033BC01810BD024B034A03486821BB
:1041400001F028FA506401100CCD01106C640110CC
:1041500010B5437B8B4201D1012010BDFFF7E0FF7A
:104160008378002B01D10020F7E70120F5E770B537
:104170000400857B002D01D1280070BD2900FFF7C8
:10418000CFFF4378A373002B00D1E3730023837028
:1041900043700370F0E70000F8B506000C0015004E
:1041A000FFF7BEFF0700002C0DD0002D11D0AC4250
:1041B00015D029003000FFF7B3FF84703B78002B47
:1041C00013D13D70F8BD0A4B0A4A0B486F2101F02C
:1041D000E1F90A4B074A0848702101F0DBF9084B66
:1041E000044A0548712101F0D5F943703D70E9E7B3
:1041F000BC640110E8CC01106C640110C8640110AB
:10420000D464011070B506000D001400002914D00C
:10421000002A14D0436880689847002806D02200FE
:1042200029003000FFF7B8FF280007E02A0021002E
:104230003000FFF7B1FF200000E0100070BD080063
:10424000FCE7000070B504000D1E0CD0FFF768FFFE
:104250000023837043700370617B2A002000FFF706
:10426000D1FF607370BD034B034A0448A52101F0E0
:1042700091F9C04634650110FCCC01106C6401104A
:1042800070B504000D1E0FD0FFF762FF00280BD1A0
:10429000E17B00290ED1A37B002B03D1E37B002B14
:1042A0000DD1A573E57370BD084B094A0948F62185
:1042B00001F070F92000FFF733FF4570EBE7064B84
:1042C000034A0448FB2101F065F9C046EC64011083
:1042D000D8CC01106C6401101065011010B50029D4
:1042E00007D003681B7B8B4203D3C0680139401899
:1042F00010BD034B034A0448412101F04BF9C0466D
:10430000EC630110C4CC01101064011010B50C0056
:10431000CB68834207D10B6908009847002809D071
:104320002068616810BD064B064A52210648FF31DD
:1043300001F030F90023E36000200021F2E7C046DD
:104340002465011078CC01101064011070B50500CF
:104350000C00080000F042FD0949200000F082FC3A
:10436000FFF774FA074B9C466044800068602C7528
:10437000D0231B061B786B75034BA400E55070BD62
:104380009944001040000034FC3300200A4B1A68A6
:10439000EFF3108172B61368002BFCD0BFF35F8F70
:1043A000054B1B68BFF35F8F00221A6081F31088F2
:1043B00040BF0020002170472C36002010B582B08D
:1043C000040000F0E7FB02000B006846FFF77CFEEC
:1043D000009A019B22606360200002B010BD70B59E
:1043E00084B0040016001D0002A8FFF7E7FF029A40
:1043F000039B009601952000FFF778FE200004B093
:1044000070BD0000F0B583B0070001921D000AAB3B
:104410001C780BAB1E78002C0BD000682100FFF736
:1044200097FE002809D0194B194A1A48672101F054
:10443000B1F80068FFF79BFE0400002C02D12000B9
:1044400003B0F0BD21003800FFF70AFE019B0360B6
:104450004560089B8360099BC36038682100FFF7B3
:10446000F1FEA042EBD1387D019A2B0000F042FC16
:10447000051E01D0002E04D00C9B002BDFD01D7038
:10448000DDE73868210000F0EFFDF5E73865011041
:1044900018CD011010640110F0B5DE4657464E46A7
:1044A0004546E0B58FB00B900021794B8200D4587F
:1044B000894683E029002000FFF7D2FD804602688C
:1044C0004368921BBB41002B09DD43461A685B68B9
:1044D0000B9800F00FFC0023984600268AE0002B82
:1044E00001D1002AF1D10021584600F0B3FD0700A8
:1044F000A84215D143461A685B680892099343465F
:104500009E68DB689846002E10D029002000FFF737
:10451000E5FE037899461B021F432761002069E0EE
:104520005C4B5D4A5D488E2101F034F85C4B5A4A81
:104530005A48922101F02EF82369002B00D177E030
:10454000BB4219D106980799002342428B41009241
:104550000193089A099B0CA8FFF7C8FD0C9A0D9BC4
:104560000021049101310391029541460191009689
:104570002000FFF747FF16E04A4B474A4748A12172
:1045800001F008F8069A079B002B01D1002A52D1AE
:1045900020682900FFF774FE29002000FFF79EFE27
:1045A000037801330370002323616268BFF35F8FD8
:1045B00013608AF310880120002861D00CA8FFF74F
:1045C000FDFE0C9E0D9F0022002308920993626855
:1045D000EFF3108A72B61368002BFCD0BFF35F8F25
:1045E00023689B465D7B002D00D063E7002398463F
:1045F000002600206368BFF35F8F00221A608AF3F1
:104600001088002ED8D04B461F022F434146380059
:10461000B047069007916268EFF3108A72B613688C
:10462000002BFCD0BFF35F8F079B002B00DA83E7E2
:10463000079B002BA6DD2369002BA9D0BB4219D113
:104640000CA8FFF7BBFE0C9A0D9B069807990090EB
:1046500001910CA8FFF74AFD0C9A0D9B00210491D3
:104660000131039102954146019100962000FFF728
:10467000C9FE98E70B4B084A0848A42100F08AFFBE
:104680000FB0F0BCBB46B246A946A046F0BDC0463E
:10469000FC3300206065011048CD0110106401104A
:1046A000786501108465011010B50C4B5B68002B18
:1046B00004D00B480A21FFF731FC10BD074C094A12
:1046C00020682300102100F030FC032000F056FA8F
:1046D00003212000FFF73AFEEBE7C046081B00204D
:1046E0002C3600209940001010B5064B5B68002B5B
:1046F00001D0044810BD044B044A05485E2100F077
:1047000049FFC046081B0020C0650110ACCC011059
:1047100010640110F0B5DE4657464E464546E0B5FA
:104720008DB0060090461F00169B9A46179B99462F
:1047300018AB1B780793272302AA944663440022F0
:104740001A7021E001003000FFF7C8FD00783CE05E
:104750000698002B5CD0079B002B59D04946D047C8
:1047600004000D0003000B4359D0002940DB08A8CA
:10477000FFF724FE089A099B0094019508A8FFF70B
:10478000B5FC089B9846099F7268EFF3108B72B6D0
:10479000136859424B41D9B20691002BF8D1BFF3AF
:1047A0005F8F273302AA9446634404930023039344
:1047B00002934B4601935346009342463B00300020
:1047C000FFF720FE0400051EBCD17368BFF35F8FA6
:1047D000002119608BF31088002D17D0272302AA1F
:1047E000944663441B78002BB2D100022043B0E70B
:1047F00000236242AB410092019342463B0008A86D
:10480000FFF774FC089B9846099FBDE701204042D2
:104810000DB0F0BCBB46B246A946A046F0BD069816
:10482000F6E7F0B5C64600B584B005008846160028
:104830001F000AAB1C78FFF757FF02940197009600
:104840002A004346FFF766FF04B080BCB846F0BDBF
:10485000F0B5C64600B505000C1E42D04268EFF325
:10486000108772B61368002BFCD0BFF35F8FE6B2DF
:104870002B68984631001800FFF76AFC00282AD000
:104880002B69A34213D0240AE4B231002800FFF7B9
:1048900025FD0378A34211D000206B68BFF35F8F22
:1048A00000221A6087F3108880BCB846F0BD0E4B1A
:1048B0000E4A2C210E48FF3100F06CFE31004046BC
:1048C00000F0D2FB0028E8D10A4B084A9921084899
:1048D000490000F05FFE2B69A342DED100232B616B
:1048E000DBE70020E0E7C046E465011094CC01104E
:1048F000106401100866011010B50400FFF7F4FE03
:104900002100FFF7A5FF10BD407D7047F0B587B0CF
:104910000500100019000E9C13000B4301D101206B
:104920000021A5600C9B2361206061600D9B636189
:10493000CE1737007040020071400B00921BBB4144
:1049400004A8FFF74CFD049A059B012102910194F4
:10495000044900912800FFF7DDFEE060C043C00F6E
:1049600007B0F0BD0D43001030B587B004000D0056
:10497000EFF30583002B20D106225242D3171219E0
:104980006B418B4202D803D1824201D9002200231D
:1049900004A8FFF799FB02A8FFF710FD02980399FE
:1049A000049A059B121A8B41002B0BDC08D02000C7
:1049B000290000F0FBF807B030BD144800F082FE7B
:1049C000002AF4D0124A0498059900230093FFF7B7
:1049D00028FF002813DAEAE70E4B1A68EFF310817C
:1049E00072B61368002BFCD0BFF35F8F094B1B68B6
:1049F000BFF35F8F00221A6081F3108820BF0498F4
:104A00000599FFF719FB0028E6D0D0E70C660110E6
:104A10008D4300102C36002000B583B002000B003F
:104A20006846FFF7DCFC00980199FFF79DFF03B093
:104A300000BD10B5FA2292000023002102F0EAFD29
:104A4000FFF7EAFF10BD000030B583B005000C0091
:104A5000EFF30583002B0FD10B4A00230093FFF7E0
:104A6000E0FE00280BDD20BFFFF746FF28002100F5
:104A7000FFF7E2FA03B030BDFFF7DEFAFAE72800ED
:104A80002100FFF7D9FAF5E78D430010084B5B6A68
:104A9000994209D8064A926A824207D2994201D0C5
:104AA000012002E0002000E0002070470120FCE728
:104AB0000040054010B541680068FFF7E7FF10BDF2
:104AC0000260436000487047B54A001010B5002BE3
:104AD00002DB0260436010BD024B034A03483F21E2
:104AE00000F058FD485C011094CD01109C5C011051
:104AF00070B5EFF305801038EFF3108C72B6194BD8
:104B00001B68002BFBD0BFF35F8F01221300834093
:104B100015494B6315490B60154909780C00C440D1
:104B2000224213D0104A546A124A8500AA5894426D
:104B300005D3114AAA580E4C9943217007E00A4A3E
:104B4000031D9B0099589950002200E00022BFF3FA
:104B50005F8F044B002119608CF31088002A00D06D
:104B6000904770BD280100D0004005403C700540D2
:104B700068360020383600209829002010B5010042
:104B8000024A034B1800FEF70FFE10BD5C660110D1
:104B90005E360020044B5B6A034A906A1900536A30
:104BA0009942F9D17047C04600400540084B5B6A06
:104BB00001E0074B5B6A8B42FBD301E0044B5B6A6D
:104BC0008B4203D1024B9B6A8342F7D37047C046A6
:104BD00000400540F0B583B004000D00FFF7DAFF98
:104BE00006000F0022002B0092197B41994202D847
:104BF00004D1904202D901225242D3176846FFF7EE
:104C000065FF00980199FFF7D1FF03B0F0BD0000E8
:104C100010B5002807DB064B9A6A054B9B6A9B1A66
:104C20008342FAD310BD0021FFF7D4FFFAE7C04654
:104C30000040054010B50A4B984207D843011B1AA3
:104C40009B001818C000FFF7E3FF10BDFA22920086
:104C50000023002102F0DEFCFFF7BCFFF5E7C046B1
:104C60009BC4200070B504000E00EFF3108572B6EF
:104C70001B4B1B68002BFBD0BFF35F8F002E1CD09B
:104C80002000FEF79FFE174B83420BD01900200037
:104C9000FEF7B2FE01212000FEF784FE0123A340AF
:104CA000114A1360114BA400E650BFF35F8F0C4B09
:104CB00000221A6085F3108870BD0C4BA200002101
:104CC000D1500122A2400A490B7893430B70054949
:104CD0002000FEF7C3FF00212000FEF763FEE4E79B
:104CE000280100D0F14A00103860054098290020C2
:104CF00068360020F0B5DE4600B584B0040015002B
:104D000001921E000293FFF745FF03958E4202D8E1
:104D10004ED185424CD9EFF3108B72B6274B1B68EE
:104D2000002BFBD0BFF35F8F254A17780125A540E4
:104D3000EBB23B431370234B5D63221D920001993C
:104D4000D150214AA100029888501B6A2B4212D1EF
:104D50001C4B1B6C2B4208D00020BFF35F8F174BFE
:104D600000221A608BF3108823E0184B184A194868
:104D7000C52100F00FFCFFF70DFF8E4214D802D1C1
:104D8000039B834210D80E4B1B78BB420ED00D4BB9
:104D90001D625D631F222240012393400E4A13606F
:104DA000074B1F700120D8E70020D6E70120D4E789
:104DB000012004B080BCBB46F0BDC046280100D035
:104DC000683600200040054038360020806601101B
:104DD00078CD0110A466011080E200E0EFF3108CA2
:104DE00072B60B4B1B68002BFBD0BFF35F8F012308
:104DF0008340084A136208490A789A430A70BFF34D
:104E00005F8F034B00221A608CF310887047C046F6
:104E1000280100D0004005406836002010B5002968
:104E200008D0037B8B4205D300684B005B18033B23
:104E3000C01810BD024B034A0348682100F0AAFBCA
:104E400050640110ECCD01106C640110F8B506003F
:104E50000C001500FFF7E2FF0700002C0DD0002D1D
:104E600011D0AC4215D029003000FFF7D7FF847075
:104E70003B78002B13D13D70F8BD0A4B0A4A0B4812
:104E80006F2100F087FB0A4B074A0848702100F0A9
:104E900081FB084B044A0548712100F07BFB4370FD
:104EA0003D70E9E7BC640110D8CD01106C640110BD
:104EB000C8640110D464011070B506000D00140020
:104EC000002914D0002A14D043688068984700282D
:104ED00006D0220029003000FFF7B8FF280007E0C5
:104EE0002A0021003000FFF7B1FF200000E0100091
:104EF00070BD0800FCE770B5050000234373013363
:104F00008373037BC373012406E021002800FFF7AD
:104F100085FF0134E4B24470297BA142F5D8280012
:104F2000FFF77CFF0023437070BD10B50173426032
:104F30008360FFF7E0FF10BDF0B5C64600B5050081
:104F40000C1E03D1200080BCB846F0BDFFF766FF01
:104F50004678002EF6D031002800FFF75FFF477833
:104F600000239846437021002800FFF757FF43466F
:104F70004370320021002800FFF79EFF0400390033
:104F80002800FFF7D9FF020021002800FFF794FF57
:104F90000400D7E7F0B5C64600B504000D001700C1
:104FA000002927D0FFF73AFF4378002B28D18378D8
:104FB000002B2BD101782000FFF7BEFF06008046B2
:104FC000002F0AD0E17B002926D1A37B002B03D13F
:104FD000E37B002B25D1A573E5734346002B26D137
:104FE00029002000FFF71AFF00234370300080BC27
:104FF000B846F0BD114B124A1248382100F0CAFAE7
:10500000114B0F4A0F483A2100F0C4FA0F4B0C4ADB
:105010000C483B2100F0BEFA2000FFF7FFFE457070
:10502000D3E70B4B064A0748422100F0B3FA3100A0
:105030002000FFF7F3FE00238370D1E7EC66011038
:10504000C4CD0110F4660110346701105C670110D3
:105050001065011070B504000A00457B2900FFF7B8
:1050600099FF6073280070BD70B506000C1E40D01B
:10507000437B8B4207D0FFF7D1FE050081780029E2
:1050800006D1002036E00121FFF7E4FF012031E0E6
:105090003000FFF7C3FE0178A1420DD03000FFF7CA
:1050A000BDFE4178A1420AD00029F7D1124B134A24
:1050B00013486B3100F06EFA6B78037001E06B7887
:1050C00043700023AB706B70012221003000FFF7AA
:1050D00061FF0200717B814205D03000FFF7ECFEDA
:1050E0007073012006E0074B044A0548712100F067
:1050F00051FA002070BDC04634630110ACCD0110E0
:10510000F466011080670110F8B5DE4657464E463A
:105110004546E0B506000F0015000A9A934250D3A9
:105120001A0E92461B0298460A9A002340465146A0
:1051300001F070FC81467400A419A4002F4B9C461A
:1051400064446368834200D26060331FDBB29B46D5
:10515000012B3CD9C0239B012343802212011A60FA
:10516000274BB200D158002907D0586901F014FC30
:10517000013043001B18033BFDD26D0123685D40E5
:10518000E0222A4080235B0123431A605A46012A09
:1051900028D980239B012343802212011A604B46A9
:1051A00063604A4600234046514601F033FC144BED
:1051B000B60098510120F0BCBB46B246A946A046B5
:1051C000F8BD104B104A1148332100F0E3F9012FCC
:1051D000C0D1C0239B01234303221A60A368DB07CD
:1051E000FCD5CAE72168794003220A401A60A36807
:1051F0000125BD401D42FAD0CBE7C04600800040EB
:10520000BC2A0020A0670110F8CD0110B46701107E
:1052100030B583B00C2000F011F9FEF7A5FA002894
:105220000DD0002304E02E4A99002E488850013307
:10523000092BF8D92A4B2C4A5A6203B030BD2B4BAC
:1052400000229A6700F06CF9294B01221A60274B63
:105250005B6C012BFBD1274B03221A60234B9B6B0A
:10526000012BFBD1013300930433234A012123484E
:1052700000F054F805230093214A0121214800F051
:105280004DF8214B0093002202210420FFF73CFF40
:105290001E4D00952B00002201210520FFF734FF51
:1052A000104C00942300002200210720FFF72CFF60
:1052B00000942300002200210820FFF725FF0A4B5D
:1052C00000932300002200210920FFF71DFF009515
:1052D0002B00002200210620FFF716FFADE7C04695
:1052E000BC2A0020006CDC021BB7000000800040DC
:1052F0003CB0004030B00040002F685900800240B0
:10530000008C864700C00240001BB700405973075D
:10531000014B8000C0587047BC2A0020F0B5C6463B
:1053200000B504000E0017001D00374801F034FBE3
:105330008046364BFA18364B9A4239D8010038006D
:1053400001F02AFB0200103A98235B009A4235D8FC
:105350006B1E062B38D8069B013B062B34D83F0921
:10536000474537D32D04069B1B031D432368002BA1
:1053700036DB284B9C4244D080235B01264A1360D5
:10538000264A1360264A926819009143FAD1266092
:10539000A060221DC0239B01134321221A602268B2
:1053A000002AFCDAE56008221A6080BCB846F0BD2D
:1053B0001C4B1D4A1D48112100F0ECF81C4B1A4AE9
:1053C0001A48192100F0E6F81A4B174A17481C2111
:1053D00000F0E0F8184B144A1448232100F0DAF8E2
:1053E00022683F231340B342C3D1A3681B051B0DA2
:1053F0008342BED1E368EE22D2021340AB42B8D161
:10540000D3E780239B01B9E7001BB70080E84BD3AB
:1054100080F8A93200C0024000E0004000F00040E7
:1054200000C000400068011008CE01106068011043
:10543000A4680110C06801100C69011080239B0052
:105440000343014AD362704700800540024B1A684B
:10545000024B5A607047C046B833002000800540B8
:1054600010B5174B8022D2051A60164B164A1A60E7
:1054700000290AD0154BE022D2041A60002809D175
:10548000124B802212061A6010BD0D4BE022D2048E
:105490001A60F3E743011B1A9B00181800010C4B1C
:1054A000186080235B04984202D3094B094A1A60B2
:1054B000FFF7CCFF054B8022D2051A60E4E7C04617
:1054C00000B0054008200140FCFF010000A005409D
:1054D000B8330020FFFFFF0010B5030010000C4A96
:1054E0008024E4051460002B0DD001221343094AE7
:1054F000094CD461094C5C401462516293620021F2
:10550000FFF7AEFF10BD034B0022DA61F7E7C0469C
:1055100000B0054000800540D3C007B02D3FF84FD4
:10552000064BAA2212011A602F22DA60044B054AA8
:105530001A60024B5B68002BFBDA704700400240A8
:105540000060024000B0FA0000BEFDE703000A4A16
:105550001268002A08D0084A1068C318074A9A42FD
:1055600006D3054A13607047034A05491160F2E704
:1055700001204042F7E7C046A42F0020000004208D
:105580006C3600200020704701204042704710B563
:10559000FFF7DAFF30B583B00D001900002A0BD0F9
:1055A000074B084C019200932B000200200002F0F0
:1055B0007DFB0120FFF7C8FF034B1A00F1E7C0464F
:1055C0002869011038690110FC5F011070B52B4B80
:1055D0002B4A1A602B4B2C4A1A602C4B9A682A4B88
:1055E0009343FAD12A4C01E008CC9847294B9C42BE
:1055F000FAD3FFF70DFE234B274A1A60234B9B6813
:10560000DB43DB01FAD1254B40229A675A671A67C0
:10561000DA66234C09E0234B234A24488721FFF70D
:10562000B9FF2000FEF7D7FC0834214B9C4209D279
:105630002368002BF5D0012BEDD12000FEF7D8FC1C
:105640000834F2E71B4DA9681B4CC022200002F071
:1056500025F9AC60EFF30583002B00D000BEFEF708
:10566000E5F8FEF737FCFFF71FF8144C01E008CC13
:105670009847134B9C42FAD370BDC04600E00040EF
:10568000BFCDFBFE00F00040FE7F3C0000C00040AC
:10569000F020002000210020FFFFFF0100F001406A
:1056A000E82000206869011014CE011088690110FB
:1056B000F020002000ED00E000000020002100208C
:1056C0003C2100200FB400B583B0084802F0BEFAB8
:1056D000049B002B07D005A90191180002F0C6FA1F
:1056E000034802F0B3FA0120FFF72EFFD069011042
:1056F000B86001109A4200D288547047704710B5C4
:10570000002802D00B684968984710BD01000020AE
:1057100007E083001B185B00501C08601078C0185D
:1057200030380A681378303BDBB2092BF1D9704767
:10573000F0B5DE4657464E464546E0B583B0934643
:105740001F000C9B9A460D9C0E9B99460F9B9B0736
:1057500003D0B8460F00060022E00192A346884617
:105760004E46B9460700B44207D2551C4B46414647
:105770002020B84701342A00F5E73D004F465C463B
:10578000019B9B46B1464646B84637002E0007E0CF
:10579000013C551C5346185D43463900B0472A006A
:1057A000002CF5D135003E0047460F9B9B0707D4E0
:1057B000100003B0F0BCBB46B246A946A046F0BDFF
:1057C000B0464E46B9462F005D46531BB342EFD25A
:1057D000541C4B4641462020B8472200F5E7F0B55F
:1057E000CE46474680B585B0944698460C9D0D9CA4
:1057F0000EAB1B789946109A119B129EB7071CD4CA
:10580000002B0CD0F7070AD54F46002F02D10C37DA
:10581000374204D0013B02E030272F550134944237
:1058200001D21F2CF8D9F70707D59C4205D21F2CAF
:1058300003D830272F550134F5E7F70612D5770541
:1058400005D4002C03D0944221D09C421FD00F9A43
:10585000102A32D00F9A022A37D01F2C0AD83022B1
:105860002A5501341F2C05D84A46002A33D02D2250
:105870002A550134039602930194009543466246EB
:10588000FFF756FF05B0C0BCB946B046F0BD621E7A
:10589000012C10D00F9F102F0BD014000F9A102A3C
:1058A000D8D1B206D6D51F2CD4D858222A550134C7
:1058B000D3E7023CCBE71400C9E7B206EED41F2CB5
:1058C000ECD878222A550134C7E71F2CD2D8603291
:1058D0002A550134C1E7720703D52B222A5501341A
:1058E000C8E73207C6D520222A550134C2E7F0B5F1
:1058F000DE4657464E464546E0B593B081468A4659
:10590000089209931CAB10CB1B789B461E9D219BD4
:105910009846002C03D1102342469A439046802398
:10592000DB0046461E4042461A4212D0002C22D0CE
:1059300000260EE03033D9B2771C0AAB9955290006
:10594000200001F029F8AC4216D31F2F14D83E00D6
:1059500004002900200001F01FF8CBB2092BE9D97F
:105960004246920605D54121C918C9B20A39C9B2C1
:10597000E2E76121F8E7270043460693209B059361
:105980001F9B049303955B46029301970AAB009318
:10599000099B089A51464846FFF721FF13B0F0BC17
:1059A000BB46B246A946A046F0BDF0B5DE46574616
:1059B0004E464546E0B597B00A900B910C929A4638
:1059C000209B9946219F22AA13789B46249B0993EA
:1059D000259C289B98464A463A4302D1103293436D
:1059E00098468022D20045461540434613420AD0CD
:1059F0004A463A4341D000252E0053460D934D466A
:105A0000099B9A461BE02E0053460D934D46099B79
:105A10009A4614E03033DAB2731C99460EAB9A55AD
:105A2000524623002800390000F0F4FFBC4226D87B
:105A300019D04B461F2B1CD84E4605000F0052466E
:105A400023002800390000F0E5FFD3B2092BE1D98B
:105A50004246920605D54122D218D2B20A3AD2B2B3
:105A6000DAE76122F8E7AA45E3D94E460D9B9A464C
:105A700008E04E460D9B9A4604E0002602E04E46A2
:105A80000D9B9A4643460693279B0593269B0493BA
:105A9000099B03935B46029301960EAB009353461A
:105AA0000C9A0B990A98FFF79AFE17B0F0BCBB4608
:105AB000B246A946A046F0BDF0B5DE4657464E4672
:105AC0004546E0B591B0804689460C929A461A9CAC
:105AD0001B9D22002B002000290001F026FA00283F
